S01600004C45445F41737369676E6D656E742E73726563C1
S11300000C9433000C94E7000C9450000C945000B2
S11300100C9450000C9450000C9450000C9450001C
S11300200C9450000C9450000C9450000C9450000C
S11300300C9450000C9450000C9450000C945000FC
S11300400C9450000C9450000C9450000C945000EC
S11300500C9450008F00A900B000B700BE00C60089
S1130060CE00D600DE0011241FBECFE5D8E0DEBFEF
S1130070CDBF10E0A0E6B0E0ECEFF4E002C00590E4
S11300800D92A236B107D9F720E0A2E6B0E001C094
S11300901D92A536B207E1F70E9418010C947C0268
S11300A00C9400006091620081E40E940C018111B3
S11300B021C063E081E40E940C0181111DC065E050
S11300C081E40E940C01811119C067E081E40E945F
S11300D00C01811115C06091600084E40E94080144
S11300E0811110C00E9474020E9470020E946C026E
S11300F080E0089581E0089581E0089581E0089505
S113010081E0089582E00895E0916300F091640035
S1130110E930F105C8F7E65DFF4F0C947602609173
S1130120620081E40E94140181114FC063E081E404
S11301300E941401811149C065E081E40E94140108
S1130140811143C067E081E40E9414018823E1F235
S11301503CC060E081E40E9410018823A9F235C00C
S113016063E081E40E941001882371F22EC065E0EF
S113017081E40E941001882339F227C067E081E4FA
S11301800E941001882309F4BFCF1FC060E081E4FE
S11301900E941401882309F4B7CF17C063E081E4F7
S11301A00E941401882309F4AFCF0FC065E081E4F5
S11301B00E941401882309F4A7CF07C067E081E4F3
S11301C00E941401882309F49FCF81E008951F92AF
S11301D00F920FB60F9211248F939F938091630017
S11301E0909164008830910534F4019690936400F2
S11301F08093630006C081E090E090936400809354
S113020063009F918F910F900FBE0F901F901895D0
S113021040E00E949101089541E00E9491010895F7
S113022041E00E94DA01089540E00E94DA01089555
S11302300E9452000E94840080E090E0089582347D
S1130240A9F018F4813431F008958334D9F084345A
S113025029F108952AB381E090E002C0880F991F24
S11302606A95E2F7809582238ABB089527B381E0DB
S113027090E002C0880F991F6A95E2F78095822367
S113028087BB089524B381E090E002C0880F991FD2
S11302906A95E2F78095822384BB089521B381E0B7
S11302A090E002C0880F991F6A95E2F78095822337
S11302B081BB08958234A1F018F4813431F008959B
S11302C08334C9F0843411F108952AB381E090E0B5
S11302D002C0880F991F6A95E2F7822B8ABB0895A2
S11302E027B381E090E002C0880F991F6A95E2F776
S11302F0822B87BB089524B381E090E002C0880F6D
S1130300991F6A95E2F7822B84BB089521B381E09B
S113031090E002C0880F991F6A95E2F7822B81BB97
S113032008956830D8F58234A9F018F4813431F096
S113033037C08334D9F0843429F132C0411104C068
S11303400E941F0180E00895413061F50E945A0126
S113035080E00895411104C00E941F0180E00895C7
S1130360413011F50E945A0180E00895411104C002
S11303700E941F0180E008954130C1F40E945A0197
S113038080E00895411104C00E941F0180E0089597
S1130390413071F40E945A0180E0089582E008958A
S11303A081E0089583E0089583E0089583E008954B
S11303B083E00895683008F083C0823449F118F46A
S11303C0813441F07FC0833409F440C0843409F49B
S11303D05AC078C041110DC02BB381E090E002C037
S11303E0880F991F6A95E2F7809582238BBB80E082
S11303F00895413009F068C02BB381E090E002C059
S1130400880F991F6A95E2F7822B8BBB80E00895D1
S113041041110DC028B381E090E002C0880F991FFC
S11304206A95E2F78095822388BB80E00895413085
S113043009F04CC028B381E090E002C0880F991FF6
S11304406A95E2F7822B88BB80E0089541110DC0C4
S113045025B381E090E002C0880F991F6A95E2F706
S11304608095822385BB80E00895413089F525B3CA
S113047081E090E002C0880F991F6A95E2F7822B11
S113048085BB80E0089541110DC022B381E090E066
S113049002C0880F991F6A95E2F78095822382BB78
S11304A080E008954130B1F422B381E090E002C0CD
S11304B0880F991F6A95E2F7822B82BB80E008952A
S11304C082E0089581E0089584E0089584E0089529
S11304D084E0089584E008958BB780648BBF089509
S11304E085B7836085BF089578940895EE0FFF1F44
S10F04F00590F491E02D0994F894FFCFDE
S10504FC0200F8
S9030000FC
